{
  "_format": "hh-sol-artifact-1",
  "contractName": "HashPunk",
  "sourceName": "contracts/HashPunk.sol",
  "abi": [
    {
      "anonymous": false,
      "inputs": [
        {
          "indexed": true,
          "internalType": "address",
          "name": "owner",
          "type": "address"
        },
        {
          "indexed": true,
          "internalType": "address",
          "name": "approved",
          "type": "address"
        },
        {
          "indexed": true,
          "internalType": "uint256",
          "name": "tokenId",
          "type": "uint256"
        }
      ],
      "name": "Approval",
      "type": "event"
    },
    {
      "anonymous": false,
      "inputs": [
        {
          "indexed": true,
          "internalType": "address",
          "name": "owner",
          "type": "address"
        },
        {
          "indexed": true,
          "internalType": "address",
          "name": "operator",
          "type": "address"
        },
        {
          "indexed": false,
          "internalType": "bool",
          "name": "approved",
          "type": "bool"
        }
      ],
      "name": "ApprovalForAll",
      "type": "event"
    },
    {
      "anonymous": false,
      "inputs": [
        {
          "indexed": false,
          "internalType": "uint8",
          "name": "version",
          "type": "uint8"
        }
      ],
      "name": "Initialized",
      "type": "event"
    },
    {
      "anonymous": false,
      "inputs": [
        {
          "indexed": true,
          "internalType": "address",
          "name": "from",
          "type": "address"
        },
        {
          "indexed": true,
          "internalType": "address",
          "name": "to",
          "type": "address"
        },
        {
          "indexed": true,
          "internalType": "uint256",
          "name": "tokenId",
          "type": "uint256"
        }
      ],
      "name": "Transfer",
      "type": "event"
    },
    {
      "inputs": [],
      "name": "Hpoint",
      "outputs": [
        {
          "internalType": "uint256",
          "name": "",
          "type": "uint256"
        }
      ],
      "stateMutability": "view",
      "type": "function"
    },
    {
      "inputs": [
        {
          "internalType": "address",
          "name": "to",
          "type": "address"
        },
        {
          "internalType": "uint256",
          "name": "tokenId",
          "type": "uint256"
        }
      ],
      "name": "approve",
      "outputs": [],
      "stateMutability": "nonpayable",
      "type": "function"
    },
    {
      "inputs": [
        {
          "internalType": "address",
          "name": "owner",
          "type": "address"
        }
      ],
      "name": "balanceOf",
      "outputs": [
        {
          "internalType": "uint256",
          "name": "",
          "type": "uint256"
        }
      ],
      "stateMutability": "view",
      "type": "function"
    },
    {
      "inputs": [],
      "name": "base",
      "outputs": [
        {
          "internalType": "uint256",
          "name": "",
          "type": "uint256"
        }
      ],
      "stateMutability": "view",
      "type": "function"
    },
    {
      "inputs": [],
      "name": "baseMetadataURI",
      "outputs": [
        {
          "internalType": "string",
          "name": "",
          "type": "string"
        }
      ],
      "stateMutability": "view",
      "type": "function"
    },
    {
      "inputs": [
        {
          "internalType": "uint256",
          "name": "tokenId",
          "type": "uint256"
        }
      ],
      "name": "getApproved",
      "outputs": [
        {
          "internalType": "address",
          "name": "",
          "type": "address"
        }
      ],
      "stateMutability": "view",
      "type": "function"
    },
    {
      "inputs": [],
      "name": "hValue",
      "outputs": [
        {
          "internalType": "contract IHValue",
          "name": "",
          "type": "address"
        }
      ],
      "stateMutability": "view",
      "type": "function"
    },
    {
      "inputs": [
        {
          "internalType": "string",
          "name": "_uri",
          "type": "string"
        },
        {
          "internalType": "address",
          "name": "_hValue",
          "type": "address"
        },
        {
          "internalType": "uint256",
          "name": "_base",
          "type": "uint256"
        },
        {
          "internalType": "uint256",
          "name": "_passIdBase",
          "type": "uint256"
        }
      ],
      "name": "initialize",
      "outputs": [],
      "stateMutability": "nonpayable",
      "type": "function"
    },
    {
      "inputs": [
        {
          "internalType": "address",
          "name": "owner",
          "type": "address"
        },
        {
          "internalType": "address",
          "name": "operator",
          "type": "address"
        }
      ],
      "name": "isApprovedForAll",
      "outputs": [
        {
          "internalType": "bool",
          "name": "",
          "type": "bool"
        }
      ],
      "stateMutability": "view",
      "type": "function"
    },
    {
      "inputs": [],
      "name": "luckyEnd",
      "outputs": [
        {
          "internalType": "uint256",
          "name": "",
          "type": "uint256"
        }
      ],
      "stateMutability": "view",
      "type": "function"
    },
    {
      "inputs": [],
      "name": "luckyStart",
      "outputs": [
        {
          "internalType": "uint256",
          "name": "",
          "type": "uint256"
        }
      ],
      "stateMutability": "view",
      "type": "function"
    },
    {
      "inputs": [],
      "name": "maxSupply",
      "outputs": [
        {
          "internalType": "uint256",
          "name": "",
          "type": "uint256"
        }
      ],
      "stateMutability": "view",
      "type": "function"
    },
    {
      "inputs": [
        {
          "internalType": "uint256",
          "name": "id",
          "type": "uint256"
        },
        {
          "internalType": "uint256",
          "name": "amount",
          "type": "uint256"
        }
      ],
      "name": "mint",
      "outputs": [],
      "stateMutability": "nonpayable",
      "type": "function"
    },
    {
      "inputs": [],
      "name": "name",
      "outputs": [
        {
          "internalType": "string",
          "name": "",
          "type": "string"
        }
      ],
      "stateMutability": "view",
      "type": "function"
    },
    {
      "inputs": [],
      "name": "owner",
      "outputs": [
        {
          "internalType": "address",
          "name": "",
          "type": "address"
        }
      ],
      "stateMutability": "view",
      "type": "function"
    },
    {
      "inputs": [
        {
          "internalType": "uint256",
          "name": "tokenId",
          "type": "uint256"
        }
      ],
      "name": "ownerOf",
      "outputs": [
        {
          "internalType": "address",
          "name": "",
          "type": "address"
        }
      ],
      "stateMutability": "view",
      "type": "function"
    },
    {
      "inputs": [],
      "name": "passId",
      "outputs": [
        {
          "internalType": "uint256",
          "name": "",
          "type": "uint256"
        }
      ],
      "stateMutability": "view",
      "type": "function"
    },
    {
      "inputs": [],
      "name": "passIdBase",
      "outputs": [
        {
          "internalType": "uint256",
          "name": "",
          "type": "uint256"
        }
      ],
      "stateMutability": "view",
      "type": "function"
    },
    {
      "inputs": [
        {
          "internalType": "address",
          "name": "from",
          "type": "address"
        },
        {
          "internalType": "address",
          "name": "to",
          "type": "address"
        },
        {
          "internalType": "uint256",
          "name": "tokenId",
          "type": "uint256"
        }
      ],
      "name": "safeTransferFrom",
      "outputs": [],
      "stateMutability": "nonpayable",
      "type": "function"
    },
    {
      "inputs": [
        {
          "internalType": "address",
          "name": "from",
          "type": "address"
        },
        {
          "internalType": "address",
          "name": "to",
          "type": "address"
        },
        {
          "internalType": "uint256",
          "name": "tokenId",
          "type": "uint256"
        },
        {
          "internalType": "bytes",
          "name": "_data",
          "type": "bytes"
        }
      ],
      "name": "safeTransferFrom",
      "outputs": [],
      "stateMutability": "nonpayable",
      "type": "function"
    },
    {
      "inputs": [
        {
          "internalType": "address",
          "name": "operator",
          "type": "address"
        },
        {
          "internalType": "bool",
          "name": "approved",
          "type": "bool"
        }
      ],
      "name": "setApprovalForAll",
      "outputs": [],
      "stateMutability": "nonpayable",
      "type": "function"
    },
    {
      "inputs": [
        {
          "internalType": "uint256",
          "name": "_base",
          "type": "uint256"
        }
      ],
      "name": "setBase",
      "outputs": [],
      "stateMutability": "nonpayable",
      "type": "function"
    },
    {
      "inputs": [
        {
          "internalType": "string",
          "name": "baseUri",
          "type": "string"
        }
      ],
      "name": "setBaseUri",
      "outputs": [],
      "stateMutability": "nonpayable",
      "type": "function"
    },
    {
      "inputs": [
        {
          "internalType": "contract IHValue",
          "name": "_hValue",
          "type": "address"
        }
      ],
      "name": "setHValue",
      "outputs": [],
      "stateMutability": "nonpayable",
      "type": "function"
    },
    {
      "inputs": [
        {
          "internalType": "uint256",
          "name": "_passIdBase",
          "type": "uint256"
        }
      ],
      "name": "setPassIdBase",
      "outputs": [],
      "stateMutability": "nonpayable",
      "type": "function"
    },
    {
      "inputs": [
        {
          "internalType": "bytes4",
          "name": "interfaceId",
          "type": "bytes4"
        }
      ],
      "name": "supportsInterface",
      "outputs": [
        {
          "internalType": "bool",
          "name": "",
          "type": "bool"
        }
      ],
      "stateMutability": "view",
      "type": "function"
    },
    {
      "inputs": [],
      "name": "symbol",
      "outputs": [
        {
          "internalType": "string",
          "name": "",
          "type": "string"
        }
      ],
      "stateMutability": "view",
      "type": "function"
    },
    {
      "inputs": [
        {
          "internalType": "uint256",
          "name": "tokenId",
          "type": "uint256"
        }
      ],
      "name": "tokenURI",
      "outputs": [
        {
          "internalType": "string",
          "name": "",
          "type": "string"
        }
      ],
      "stateMutability": "view",
      "type": "function"
    },
    {
      "inputs": [],
      "name": "totalSupply",
      "outputs": [
        {
          "internalType": "uint256",
          "name": "",
          "type": "uint256"
        }
      ],
      "stateMutability": "view",
      "type": "function"
    },
    {
      "inputs": [
        {
          "internalType": "address",
          "name": "from",
          "type": "address"
        },
        {
          "internalType": "address",
          "name": "to",
          "type": "address"
        },
        {
          "internalType": "uint256",
          "name": "tokenId",
          "type": "uint256"
        }
      ],
      "name": "transferFrom",
      "outputs": [],
      "stateMutability": "nonpayable",
      "type": "function"
    },
    {
      "inputs": [
        {
          "internalType": "address",
          "name": "",
          "type": "address"
        },
        {
          "internalType": "uint256",
          "name": "",
          "type": "uint256"
        }
      ],
      "name": "userToRareIds",
      "outputs": [
        {
          "internalType": "uint256",
          "name": "",
          "type": "uint256"
        }
      ],
      "stateMutability": "view",
      "type": "function"
    },
    {
      "inputs": [],
      "name": "voucher",
      "outputs": [
        {
          "internalType": "uint256",
          "name": "",
          "type": "uint256"
        }
      ],
      "stateMutability": "view",
      "type": "function"
    }
  ],
  "bytecode": "0x608060405260016073556101f460745534801561001b57600080fd5b506123aa8061002b6000396000f3fe608060405234801561001057600080fd5b50600436106101f05760003560e01c806370a082311161010f578063a22cb465116100a2578063cdda418c11610071578063cdda418c14610409578063d5abeb0114610411578063e985e9c514610419578063f7e056ee1461042c57600080fd5b8063a22cb465146103bd578063a8a86457146103d0578063b88d4fde146103e3578063c87b56dd146103f657600080fd5b80638da5cb5b116100de5780638da5cb5b1461037c5780639332c9a51461038f57806395d89b41146103a2578063a0bcfc7f146103aa57600080fd5b806370a082311461034557806380893c171461035857806383d18f7a1461036157806389be0ad11461036957600080fd5b80631e214f0611610187578063444b7aaf11610156578063444b7aaf146103035780635001f3b51461030b5780635b2bd79e146103145780636352211e1461031c57600080fd5b80631e214f06146102b757806323b872dd146102ca57806338e80f68146102dd57806342842e0e146102f057600080fd5b8063095ea7b3116101c3578063095ea7b3146102725780630e4715251461028557806318160ddd1461029c5780631b2ef1ca146102a457600080fd5b80630178f6b9146101f557806301ffc9a71461020a57806306fdde0314610232578063081812fc14610247575b600080fd5b610208610203366004611b8d565b610435565b005b61021d610218366004611bc7565b61048a565b60405190151581526020015b60405180910390f35b61023a6104dc565b6040516102299190611c34565b61025a610255366004611c47565b61056e565b6040516001600160a01b039091168152602001610229565b610208610280366004611c60565b610603565b61028e60735481565b604051908152602001610229565b61028e610716565b6102086102b2366004611c8c565b61072d565b6102086102c5366004611d5a565b610c93565b6102086102d8366004611db9565b610e2b565b6102086102eb366004611c47565b610e5c565b6102086102fe366004611db9565b610e8b565b61028e600181565b61028e606f5481565b61023a610ea6565b61025a61032a366004611c47565b6000908152606a60205260409020546001600160a01b031690565b61028e610353366004611b8d565b610f34565b61028e606e5481565b61028e600281565b610208610377366004611c47565b610fbb565b60715461025a906001600160a01b031681565b60705461025a906001600160a01b031681565b61023a610fea565b6102086103b8366004611dfa565b610ff9565b6102086103cb366004611e2f565b611033565b61028e6103de366004611c60565b61103e565b6102086103f1366004611e6d565b61106f565b61023a610404366004611c47565b6110a7565b61028e600381565b60695461028e565b61021d610427366004611eed565b6110db565b61028e60745481565b6071546001600160a01b031633146104685760405162461bcd60e51b815260040161045f90611f1b565b60405180910390fd5b607080546001600160a01b0319166001600160a01b0392909216919091179055565b60006001600160e01b031982166380ac58cd60e01b14806104bb57506001600160e01b03198216635b5e139f60e01b145b806104d657506301ffc9a760e01b6001600160e01b03198316145b92915050565b6060606580546104eb90611f5c565b80601f016020809104026020016040519081016040528092919081815260200182805461051790611f5c565b80156105645780601f1061053957610100808354040283529160200191610564565b820191906000526020600020905b81548152906001019060200180831161054757829003601f168201915b5050505050905090565b6000818152606a60205260408120546001600160a01b03166105e75760405162461bcd60e51b815260206004820152602c60248201527f4552433732313a20617070726f76656420717565727920666f72206e6f6e657860448201526b34b9ba32b73a103a37b5b2b760a11b606482015260840161045f565b506000908152606c60205260409020546001600160a01b031690565b6000818152606a60205260409020546001600160a01b039081169083168190036106795760405162461bcd60e51b815260206004820152602160248201527f4552433732313a20617070726f76616c20746f2063757272656e74206f776e656044820152603960f91b606482015260840161045f565b336001600160a01b0382161480610695575061069581336110db565b6107075760405162461bcd60e51b815260206004820152603860248201527f4552433732313a20617070726f76652063616c6c6572206973206e6f74206f7760448201527f6e6572206e6f7220617070726f76656420666f7220616c6c0000000000000000606482015260840161045f565b6107118383611109565b505050565b60006068546069546107289190611fac565b905090565b3233146107565760405162461bcd60e51b8152602060048201526000602482015260440161045f565b60018214806107655750600282145b61079e5760405162461bcd60e51b815260206004820152600a6024820152691a5b9d985b1a59081a5960b21b604482015260640161045f565b600182036109895780606e546107b49190611fbf565b607054604051627eeac760e11b8152336004820152600160248201526001600160a01b039091169062fdd58e90604401602060405180830381865afa158015610801573d6000803e3d6000fd5b505050506040513d601f19601f820116820180604052508101906108259190611fd6565b10156108735760405162461bcd60e51b815260206004820152601e60248201527f696e73756666696369656e74205061737320436172642062616c616e63650000604482015260640161045f565b607054606e546001600160a01b039091169063f5298aca90339060019061089b908690611fbf565b6040516001600160e01b031960e086901b1681526001600160a01b03909316600484015260248301919091526044820152606401600060405180830381600087803b1580156108e957600080fd5b505af11580156108fd573d6000803e3d6000fd5b5050505061090b3382611170565b5060705460405163731133e960e01b8152336004820152600360248201526001604482015260806064820152600060848201526001600160a01b039091169063731133e99060a401600060405180830381600087803b15801561096d57600080fd5b505af1158015610981573d6000803e3d6000fd5b505050505050565b80606f546109979190611fbf565b607054604051634c25e11f60e01b81523360048201526001600160a01b0390911690634c25e11f90602401602060405180830381865afa1580156109df573d6000803e3d6000fd5b505050506040513d601f19601f82011682018060405250810190610a039190611fd6565b607054604051627eeac760e11b8152336004820152600260248201526001600160a01b039091169062fdd58e90604401602060405180830381865afa158015610a50573d6000803e3d6000fd5b505050506040513d601f19601f82011682018060405250810190610a749190611fd6565b610a7e9190611fac565b1015610acc5760405162461bcd60e51b815260206004820152601b60248201527f696e73756666696369656e74204856616c75652062616c616e63650000000000604482015260640161045f565b607054606f546001600160a01b039091169063f5298aca903390600290610af4908690611fbf565b6040516001600160e01b031960e086901b1681526001600160a01b03909316600484015260248301919091526044820152606401600060405180830381600087803b158015610b4257600080fd5b505af1158015610b56573d6000803e3d6000fd5b505050506000610b663383611170565b905060005b8151811015610c1457607354828281518110610b8957610b89611fef565b602002602001015110158015610bba5750607454828281518110610baf57610baf611fef565b602002602001015111155b15610c02573360009081526075602052604090208251839083908110610be257610be2611fef565b602090810291909101810151825460018101845560009384529190922001555b80610c0c81612005565b915050610b6b565b5060705460405163731133e960e01b8152336004820152600360248201526001604482015260806064820152600060848201526001600160a01b039091169063731133e99060a401600060405180830381600087803b158015610c7657600080fd5b505af1158015610c8a573d6000803e3d6000fd5b50505050505050565b600054610100900460ff1615808015610cb35750600054600160ff909116105b80610ccd5750303b158015610ccd575060005460ff166001145b610d305760405162461bcd60e51b815260206004820152602e60248201527f496e697469616c697a61626c653a20636f6e747261637420697320616c72656160448201526d191e481a5b9a5d1a585b1a5e995960921b606482015260840161045f565b6000805460ff191660011790558015610d53576000805461ff0019166101001790555b610d9a604051806040016040528060088152602001674861736850756e6b60c01b81525060405180604001604052806002815260200161048560f41b815250610bb86113bb565b606e829055606f839055607080546001600160a01b0319166001600160a01b0386161790556072610dcb8682612064565b50607180546001600160a01b031916331790558015610e24576000805461ff0019169055604051600181527f7f26b83ff96e1f2b6a682f133852f6798a09c465da95921460cefb38474024989060200160405180910390a15b5050505050565b610e3533826113ed565b610e515760405162461bcd60e51b815260040161045f90612124565b6107118383836114db565b6071546001600160a01b03163314610e865760405162461bcd60e51b815260040161045f90611f1b565b606f55565b6107118383836040518060200160405280600081525061106f565b60728054610eb390611f5c565b80601f0160208091040260200160405190810160405280929190818152602001828054610edf90611f5c565b8015610f2c5780601f10610f0157610100808354040283529160200191610f2c565b820191906000526020600020905b815481529060010190602001808311610f0f57829003601f168201915b505050505081565b60006001600160a01b038216610f9f5760405162461bcd60e51b815260206004820152602a60248201527f4552433732313a2062616c616e636520717565727920666f7220746865207a65604482015269726f206164647265737360b01b606482015260840161045f565b506001600160a01b03166000908152606b602052604090205490565b6071546001600160a01b03163314610fe55760405162461bcd60e51b815260040161045f90611f1b565b606e55565b6060606680546104eb90611f5c565b6071546001600160a01b031633146110235760405162461bcd60e51b815260040161045f90611f1b565b607261102f8282612064565b5050565b61102f338383611677565b6075602052816000526040600020818154811061105a57600080fd5b90600052602060002001600091509150505481565b61107933836113ed565b6110955760405162461bcd60e51b815260040161045f90612124565b6110a184848484611745565b50505050565b606060726110b483611778565b6040516020016110c5929190612175565b6040516020818303038152906040529050919050565b6001600160a01b039182166000908152606d6020908152604080832093909416825291909152205460ff1690565b6000818152606c6020908152604080832080546001600160a01b0319166001600160a01b03878116918217909255606a909352818420549151859492909116917f8c5be1e5ebec7d5bd14f71427d1e84f3dd0314c0f7b2291e5b200ac8c7c3b92591a45050565b60603332146111b95760405162461bcd60e51b815260206004820152601560248201527410dbdb9d1c9858dd1cc818d85b9b9bdd081b5a5b9d605a1b604482015260640161045f565b6001600160a01b03831661120f5760405162461bcd60e51b815260206004820181905260248201527f4552433732313a206d696e7420746f20746865207a65726f2061646472657373604482015260640161045f565b600082116112705760405162461bcd60e51b815260206004820152602860248201527f455243373231723a206e65656420746f206d696e74206174206c65617374206f6044820152673732903a37b5b2b760c11b606482015260840161045f565b8160685410156112d65760405162461bcd60e51b815260206004820152602b60248201527f455243373231723a206d696e74696e67206d6f726520746f6b656e732074686160448201526a6e20617661696c61626c6560a81b606482015260840161045f565b60685460008367ffffffffffffffff8111156112f4576112f4611cae565b60405190808252806020026020018201604052801561131d578160200160208202803683370190505b50905060005b8481101561137f57600061133787856118a4565b90508083838151811061134c5761134c611fef565b6020026020010181815250506113628782611936565b61136b846121fc565b9350508061137890612005565b9050611323565b5060688290556001600160a01b0385166000908152606b6020526040812080548692906113ad908490612213565b909155509095945050505050565b600054610100900460ff166113e25760405162461bcd60e51b815260040161045f90612226565b61071183838361198f565b6000818152606a60205260408120546001600160a01b03166114665760405162461bcd60e51b815260206004820152602c60248201527f4552433732313a206f70657261746f7220717565727920666f72206e6f6e657860448201526b34b9ba32b73a103a37b5b2b760a11b606482015260840161045f565b6070546001600160a01b03163303611480575060016104d6565b6000828152606a60205260409020546001600160a01b039081169084168114806114c35750836001600160a01b03166114b88461056e565b6001600160a01b0316145b806114d357506114d381856110db565b949350505050565b6000818152606a60205260409020546001600160a01b038481169116146115525760405162461bcd60e51b815260206004820152602560248201527f4552433732313a207472616e736665722066726f6d20696e636f72726563742060448201526437bbb732b960d91b606482015260840161045f565b6001600160a01b0382166115b45760405162461bcd60e51b8152602060048201526024808201527f4552433732313a207472616e7366657220746f20746865207a65726f206164646044820152637265737360e01b606482015260840161045f565b6115bf600082611109565b6001600160a01b0383166000908152606b602052604081208054600192906115e8908490611fac565b90915550506001600160a01b0382166000908152606b60205260408120805460019290611616908490612213565b90915550506000818152606a602052604080822080546001600160a01b0319166001600160a01b0386811691821790925591518493918716917fddf252ad1be2c89b69c2b068fc378daa952ba7f163c4a11628f55a4df523b3ef91a4505050565b816001600160a01b0316836001600160a01b0316036116d85760405162461bcd60e51b815260206004820152601960248201527f4552433732313a20617070726f766520746f2063616c6c657200000000000000604482015260640161045f565b6001600160a01b038381166000818152606d6020908152604080832094871680845294825291829020805460ff191686151590811790915591519182527f17307eab39ab6107e8899845ad3d59bd9653f200f220920489ca2b5937696c31910160405180910390a3505050565b6117508484846114db565b61175c848484846119dc565b6110a15760405162461bcd60e51b815260040161045f90612271565b60608160000361179f5750506040805180820190915260018152600360fc1b602082015290565b8160005b81156117c957806117b381612005565b91506117c29050600a836122d9565b91506117a3565b60008167ffffffffffffffff8111156117e4576117e4611cae565b6040519080825280601f01601f19166020018201604052801561180e576020820181803683370190505b509050815b851561189b57611824600182611fac565b90506000611833600a886122d9565b61183e90600a611fbf565b6118489088611fac565b6118539060306122ed565b905060008160f81b90508084848151811061187057611870611fef565b60200101906001600160f81b031916908160001a905350611892600a896122d9565b97505050611813565b50949350505050565b600080833a4342446118b7600184611fac565b604080516001600160a01b0390971660208801528601949094526060850192909252608084015260a08301524060c08201523060e082015261010081018490526101200160408051601f198184030181529190528051602090910120905060006119218483612306565b905061192d8185611add565b95945050505050565b6000818152606a602052604080822080546001600160a01b0319166001600160a01b03861690811790915590518392907fddf252ad1be2c89b69c2b068fc378daa952ba7f163c4a11628f55a4df523b3ef908290a45050565b600054610100900460ff166119b65760405162461bcd60e51b815260040161045f90612226565b60656119c28482612064565b5060666119cf8382612064565b5060698190556068555050565b60006001600160a01b0384163b15611ad257604051630a85bd0160e11b81526001600160a01b0385169063150b7a0290611a2090339089908890889060040161231a565b6020604051808303816000875af1925050508015611a5b575060408051601f3d908101601f19168201909252611a5891810190612357565b60015b611ab8573d808015611a89576040519150601f19603f3d011682016040523d82523d6000602084013e611a8e565b606091505b508051600003611ab05760405162461bcd60e51b815260040161045f90612271565b805181602001fd5b6001600160e01b031916630a85bd0160e11b1490506114d3565b506001949350505050565b60008281526067602052604081205481818103611afb575083611afe565b50805b6000611b0b600186611fac565b600081815260676020526040902054909150868214611b545780600003611b42576000878152606760205260409020829055611b54565b60008781526067602052604090208190555b8015611b6a576000828152606760205260408120555b509095945050505050565b6001600160a01b0381168114611b8a57600080fd5b50565b600060208284031215611b9f57600080fd5b8135611baa81611b75565b9392505050565b6001600160e01b031981168114611b8a57600080fd5b600060208284031215611bd957600080fd5b8135611baa81611bb1565b60005b83811015611bff578181015183820152602001611be7565b50506000910152565b60008151808452611c20816020860160208601611be4565b601f01601f19169290920160200192915050565b602081526000611baa6020830184611c08565b600060208284031215611c5957600080fd5b5035919050565b60008060408385031215611c7357600080fd5b8235611c7e81611b75565b946020939093013593505050565b60008060408385031215611c9f57600080fd5b50508035926020909101359150565b634e487b7160e01b600052604160045260246000fd5b600067ffffffffffffffff80841115611cdf57611cdf611cae565b604051601f8501601f19908116603f01168101908282118183101715611d0757611d07611cae565b81604052809350858152868686011115611d2057600080fd5b858560208301376000602087830101525050509392505050565b600082601f830112611d4b57600080fd5b611baa83833560208501611cc4565b60008060008060808587031215611d7057600080fd5b843567ffffffffffffffff811115611d8757600080fd5b611d9387828801611d3a565b9450506020850135611da481611b75565b93969395505050506040820135916060013590565b600080600060608486031215611dce57600080fd5b8335611dd981611b75565b92506020840135611de981611b75565b929592945050506040919091013590565b600060208284031215611e0c57600080fd5b813567ffffffffffffffff811115611e2357600080fd5b6114d384828501611d3a565b60008060408385031215611e4257600080fd5b8235611e4d81611b75565b915060208301358015158114611e6257600080fd5b809150509250929050565b60008060008060808587031215611e8357600080fd5b8435611e8e81611b75565b93506020850135611e9e81611b75565b925060408501359150606085013567ffffffffffffffff811115611ec157600080fd5b8501601f81018713611ed257600080fd5b611ee187823560208401611cc4565b91505092959194509250565b60008060408385031215611f0057600080fd5b8235611f0b81611b75565b91506020830135611e6281611b75565b60208082526021908201527f4861736850756e6b3a2063616c6c6572206973206e6f7420746865206f776e656040820152603960f91b606082015260800190565b600181811c90821680611f7057607f821691505b602082108103611f9057634e487b7160e01b600052602260045260246000fd5b50919050565b634e487b7160e01b600052601160045260246000fd5b818103818111156104d6576104d6611f96565b80820281158282048414176104d6576104d6611f96565b600060208284031215611fe857600080fd5b5051919050565b634e487b7160e01b600052603260045260246000fd5b60006001820161201757612017611f96565b5060010190565b601f82111561071157600081815260208120601f850160051c810160208610156120455750805b601f850160051c820191505b8181101561098157828155600101612051565b815167ffffffffffffffff81111561207e5761207e611cae565b6120928161208c8454611f5c565b8461201e565b602080601f8311600181146120c757600084156120af5750858301515b600019600386901b1c1916600185901b178555610981565b600085815260208120601f198616915b828110156120f6578886015182559484019460019091019084016120d7565b50858210156121145787850151600019600388901b60f8161c191681555b5050505050600190811b01905550565b60208082526031908201527f4552433732313a207472616e736665722063616c6c6572206973206e6f74206f6040820152701ddb995c881b9bdc88185c1c1c9bdd9959607a1b606082015260800190565b600080845461218381611f5c565b6001828116801561219b57600181146121b0576121df565b60ff19841687528215158302870194506121df565b8860005260208060002060005b858110156121d65781548a8201529084019082016121bd565b50505082870194505b5050505083516121f3818360208801611be4565b01949350505050565b60008161220b5761220b611f96565b506000190190565b808201808211156104d6576104d6611f96565b6020808252602b908201527f496e697469616c697a61626c653a20636f6e7472616374206973206e6f74206960408201526a6e697469616c697a696e6760a81b606082015260800190565b60208082526032908201527f4552433732313a207472616e7366657220746f206e6f6e20455243373231526560408201527131b2b4bb32b91034b6b83632b6b2b73a32b960711b606082015260800190565b634e487b7160e01b600052601260045260246000fd5b6000826122e8576122e86122c3565b500490565b60ff81811683821601908111156104d6576104d6611f96565b600082612315576123156122c3565b500690565b6001600160a01b038581168252841660208201526040810183905260806060820181905260009061234d90830184611c08565b9695505050505050565b60006020828403121561236957600080fd5b8151611baa81611bb156fea2646970667358221220c795623d395f96c289b6280101f6b42c25b0fef5d5e69dbe11236c3e2fcea02964736f6c63430008110033",
  "linkReferences": {},
  "deployedLinkReferences": {}
}